:060000000A128A11FC2F18
:100F6800831603138F0183160317880189018312DF
:100F78000317871388138316031387018312031338
:100F88008701831203130708031DCB2FCC2FE52FEE
:100F9800803087008230F100DD30F000F00BD22F76
:100FA800F10BD22FD72FC030831203138700823062
:100FB800F100DD30F000F00BDF2FF10BDF2FE42F15
:100FC800C52F0708F00002300310F00CFF3E031D88
:100FD800E82F700887008230F100DD30F000F00B58
:100FE800F32FF10BF32FF82FC52F0A128A110028BF
:080FF80083010A128A11B42FD3
:08400000FF3FFF3FFF3FFF3FC0
:04400E00042FFF3F3D
:00000001FF
