:060000000A128A11FC2F18
:100F76007630831603138F008316031788018901C1
:100F860083120317871388138316031387018312AB
:100F96000313870102308316031381000630831280
:100FA600031381000B11FE3087000B1DDB2FDC2F96
:100FB600D82F0B1106308312031381000130F00085
:100FC6007008F10764307106031DEA2FEB2FD82F46
:100FD60007080319EF2FF02FF62F0708F00003106C
:100FE600700C8700D82FFE308700D82F0A128A117E
:0A0FF600002883010A128A11BB2FA4
:08400000FF3FFF3FFF3FFF3FC0
:04400E00042FFF3F3D
:00000001FF
