:060000000A128A11FC2F18
:100CBC00831603138F01831603178801890183128E
:100CCC000317871388138316031385018601870185
:100CDC00880189018312031385018601870188012C
:100CEC008901831203130514EA30F100C330F000BC
:100CFC00F00B7E2EF10B7E2E831203138514EA303B
:100D0C00F100C330F000F00B892EF10B892E831209
:100D1C0003130515EA30F100C330F000F00B942EEC
:100D2C00F10B942E831203138515EA30F100C330B6
:100D3C00F000F00B9F2EF10B9F2E83120313051660
:100D4C00EA30F100C330F000F00BAA2EF10BAA2E02
:100D5C00831203138516EA30F100C330F000F00B58
:100D6C00B52EF10BB52E831203130914EA30F100E2
:100D7C00C330F000F00BC02EF10BC02E8312031306
:100D8C008914EA30F100C330F000F00BCB2EF10BDC
:100D9C00CB2E831203130915EA30F100C330F00097
:100DAC00F00BD62EF10BD62E831203138517EA30D7
:100DBC00F100C330F000F00BE12EF10BE12E8312A9
:100DCC0003130517EA30F100C330F000F00BEC2EE2
:100DDC00F10BEC2E831203130714EA30F100C3302D
:100DEC00F000F00BF72EF10BF72E83120313871480
:100DFC00EA30F100C330F000F00B022FF10B022FA0
:100E0C00831203130715EA30F100C330F000F00B26
:100E1C000D2FF10B0D2F831203138715EA30F10000
:100E2C00C330F000F00B182FF10B182F83120313A3
:100E3C000814EA30F100C330F000F00B232FF10B53
:100E4C00232F831203138814EA30F100C330F0000F
:100E5C00F00B2E2FF10B2E2F831203130815EA30F3
:100E6C00F100C330F000F00B392FF10B392F831246
:100E7C0003138815EA30F100C330F000F00B442F57
:100E8C00F10B442F831203130716EA30F100C33021
:100E9C00F000F00B4F2FF10B4F2F8312031387161B
:100EAC00EA30F100C330F000F00B5A2FF10B5A2F3F
:100EBC00831203130717EA30F100C330F000F00B74
:100ECC00652FF10B652F831203138717EA30F1009E
:100EDC00C330F000F00B702FF10B702F8312031343
:100EEC000816EA30F100C330F000F00B7B2FF10B49
:100EFC007B2F831203138816EA30F100C330F00005
:100F0C00F00B862FF10B862F831203130817EA3090
:100F1C00F100C330F000F00B912FF10B912F8312E5
:100F2C0003138817EA30F100C330F000F00B9C2F4C
:100F3C00F10B9C2F831203130614EA30F100C3301B
:100F4C00F000F00BA72FF10BA72F831203138614BD
:100F5C00EA30F100C330F000F00BB22FF10BB22FDE
:100F6C00831203130615EA30F100C330F000F00BC6
:100F7C00BD2FF10BBD2F831203138615EA30F10040
:100F8C00C330F000F00BC82FF10BC82F83120313E2
:100F9C000616EA30F100C330F000F00BD32FF10B42
:100FAC00D32F831203138616EA30F100C330F000FE
:100FBC00F00BDE2FF10BDE2F831203130617EA3032
:100FCC00F100C330F000F00BE92FF10BE92F831285
:100FDC0003138617EA30F100C330F000F00BF42F46
:100FEC00F10BF42F772E0A128A11002883010A12B2
:040FFC008A115E2ECA
:08400000FF3FFF3FFF3FFF3FC0
:04400E00042FFF3F3D
:00000001FF
