:060000000A128A11FC2F18
:100F7E007630831603138F008316031788018901B9
:100F8E0083120317871388138316031387018312A3
:100F9E000313870131308316031392004D308312F1
:100FAE00031392008C10FE3087008C1CDF2FE02F75
:100FBE00DC2F8C100130F0007008F10764307106E0
:100FCE00031DEA2FEB2FDC2F07080319EF2FF02F4D
:100FDE00F62F0708F0000310700C8700DC2FFE3090
:100FEE008700DC2F0A128A11002883010A128A1147
:020FFE00BF2F03
:08400000FF3FFF3FFF3FFF3FC0
:04400E00042FFF3F3D
:00000001FF
