:060000000A128A11FC2F18
:100F8A00831603138F0183160317880189018312BD
:100F9A000317871388138316031387018312031316
:100FAA008701FF308312031387000630F2001330E3
:100FBA00F100AD30F000F00BE02FF10BE02FF20B57
:100FCA00E02FE72FFF308312031387000630F20069
:100FDA001330F100AD30F000F00BF12FF10BF12FCF
:100FEA00F20BF12FF82FD62F0A128A11002883014B
:060FFA000A128A11C52F46
:08400000FF3FFF3FFF3FFF3FC0
:04400E00042FFF3F3D
:00000001FF
