:060000000A128A11FC2F18
:100F840083160317880189018312031787138813B3
:100F94007630831603138F008701831203138701AE
:100FA40002308316031381008312031381010B1192
:100FB4000B1DDD2FDE2FDA2F0B11063083120313E6
:100FC4008100013087060130F0070318F10A003070
:100FD400F107F4307006031DF32F7103031DF32F83
:100FE400F42FDA2FF001F10102308706DA2F0A120A
:0C0FF4008A11002883010A128A11C22F02
:08400000FF3FFF3FFF3FFF3FC0
:04400E00042FFF3F3D
:00000001FF
