:060000000A128A11FC2F18
:100E9800831603138F0183160317880189018312B0
:100EA8000317871388138316031387018312031309
:100EB80087018312031387018230F100DD30F000CF
:100EC800F00B642FF10B642F692F8030831203130A
:100ED80087008230F100DD30F000F00B712FF10B4C
:100EE800712F762FC0308312031387008230F100F0
:100EF800DD30F000F00B7E2FF10B7E2F832FE030DA
:100F08008312031387008230F100DD30F000F00B0C
:100F18008B2FF10B8B2F902FF03083120313870048
:100F28008230F100DD30F000F00B982FF10B982F94
:100F38009D2FF8308312031387008230F100DD30D3
:100F4800F000F00BA52FF10BA52FAA2FFC30831270
:100F5800031387008230F100DD30F000F00BB22F70
:100F6800F10BB22FB72FFE308312031387008230A4
:100F7800F100DD30F000F00BBF2FF10BBF2FC42FB5
:100F8800FF308312031387008230F100DD30F00058
:100F9800F00BCC2FF10BCC2FD12F0830F200003002
:100FA800F300831203130708F0000310700C870086
:100FB8008230F100DD30F000F00BE02FF10BE02F74
:100FC800E52FFF30F2070318F30AFF30F307730821
:100FD800803AFF0080307F02031DF42F093072022F
:100FE800031CF72FF82FD52F5D2F0A128A1100281E
:080FF80083010A128A114C2F3B
:08400000FF3FFF3FFF3FFF3FC0
:04400E00042FFF3F3D
:00000001FF
