:060000000A128A11FC2F18
:100F8A0083160313870183120313870176308316AE
:100F9A0003138F008316031788018901831203172D
:100FAA008713881331308316031392004D3083124E
:100FBA00031392008C108C1CE32FE42FE02F8C106B
:100FCA00013087060130F0070318F10A0030F107F3
:100FDA00FA3070067104031DF32FF42FE02FF0018D
:100FEA00F10101308606E02F0A128A1100288301D6
:060FFA000A128A11C52F46
:08400000FF3FFF3FFF3FFF3FC0
:04400E00042FFF3F3D
:00000001FF
