:060000000A128A11FC2F18
:100F860083160313870183120313870176308316B2
:100F960003138F0083160317880189018312031731
:100FA6008713881331308316031392004D30831252
:100FB600031392008C108C1CE12FE22FDE2F8C1075
:100FC600013087060130F0070318F10A0030F107F7
:100FD600F4307006031DF32F7103031DF32FF42F56
:100FE600DE2FF001F10101308706DE2F0A128A1189
:0A0FF600002883010A128A11C32F9C
:08400000FF3FFF3FFF3FFF3FC0
:04400E00042FFF3F3D
:00000001FF
