:060000000A128A11FC2F18
:100EDA00831603138F01831603178801890183126E
:100EEA00031787138813F030831603138700F03033
:100EFA00831203138700071A832F842F9E2F8230B1
:100F0A00F100DD30F000F00B882FF10B882F8D2FC8
:100F1A0083120313071A922F932F9E2F0130F0008A
:100F2A007008F207721C9A2F9B2F9D2F07149E2F71
:100F3A000710871AA12FA22FBC2F8230F100DD30B3
:100F4A00F000F00BA62FF10BA62FAB2F8312031381
:100F5A00871AB02FB12FBC2F0130F0007008F207AA
:100F6A00721CB82FB92FBB2F8714BC2F8710071BF1
:100F7A00BF2FC02FDA2F8230F100DD30F000F00BE6
:100F8A00C42FF10BC42FC92F83120313071BCE2FB3
:100F9A00CF2FDA2F0130F0007008F207721CD62F1B
:100FAA00D72FD92F0715DA2F0711871BDD2FDE2F31
:100FBA00802F8230F100DD30F000F00BE22FF10BD0
:100FCA00E22FE72F83120313871BEC2FED2F802FBD
:100FDA000130F0007008F207721CF42FF52FF72F7A
:100FEA008715802F8711802F0A128A110028830102
:060FFA000A128A116D2F9E
:08400000FF3FFF3FFF3FFF3FC0
:04400E00042FFF3F3D
:00000001FF
