:060000000A128A11FC2F18
:100F6A0083160317880189018312031787138813CD
:100F7A007630831603138F008601831203138601CA
:100F8A000608F300831603138701831203138701EC
:100F9A000230831603138100D930831203138100B0
:100FAA000B110B1DD92FDA2FD62F0B1106308312F6
:100FBA0003138100013087060130F1070318F20A92
:100FCA000030F207FA3071067204031DED2FEE2F7E
:100FDA00D62FF101F201023087067308860001302C
:100FEA00F0007008F307D62F0A128A11002883012D
:060FFA000A128A11B52F56
:08400000FF3FFF3FFF3FFF3FC0
:04400E00042FFF3F3D
:00000001FF
