:060000000A128A11FC2F18
:100F7C00831603138F0183160317880189018312CB
:100F8C000317871388138316031387018312031324
:100F9C008701831203130708031DD52FD62FE62FC5
:100FAC00803087000630F2001330F100AD30F000D5
:100FBC00F00BDE2FF10BDE2FF20BDE2FE52FCF2FF8
:100FCC000708F0000310700C87000630F200133095
:100FDC00F100AD30F000F00BF12FF10BF12FF20B13
:100FEC00F12FF82FCF2F0A128A11002883010A1231
:040FFC008A11BE2F69
:08400000FF3FFF3FFF3FFF3FC0
:04400E00042FFF3F3D
:00000001FF
