:060000000A128A11FC2F18
:100F8E00831603138F0183160317880189018312B9
:100F9E000317871388138316031387018030831278
:100FAE0003138700831603138601A63083120313DF
:100FBE0086000608F200871BE52FE62FF62F4E302F
:100FCE00F100EB30F000F00BEA2FF10BEA2F831259
:100FDE000313871BF32FF42FE22F8609E22F7208DB
:100FEE008600E22F0A128A11002883010A128A1142
:020FFE00C72FFB
:08400000FF3FFF3FFF3FFF3FC0
:04400E00042FFF3F3D
:00000001FF
