:060000000A128A11FC2F18
:100EEC007630831603138F0083160317880189014C
:100EFC008312031787138813831603138701831236
:100F0C00031387010230831603138100063083120A
:100F1C00031381000B11F401F40A803087000B1DC0
:100F2C00982F992F952F0B110630831203138100E4
:100F3C000130F0007008F20764307206031DA72F11
:100F4C00A82F952F07080319AC2FAD2FB92F070821
:100F5C00F000740AB32F0310F00CFF3E031DB12FE9
:100F6C0070088700952F0130F0007008F40707080F
:100F7C00F300DA2FC0308700952FE0308700952FD3
:100F8C00F0308700952FF8308700952FFC308700C4
:100F9C00952FFE308700952FFF308700F401F40A5F
:100FAC00952F73088700D42F7408F000F101710895
:100FBC00003A0319E22FD72F7008023A0319C02FF9
:100FCC00013A0319C32F073A0319C62F013A031923
:100FDC00C92F033A0319CC2F013A0319CF2F0F3A1B
:100FEC000319D22FD72F0A128A11002883010A1253
:040FFC008A11762FB1
:08400000FF3FFF3FFF3FFF3FC0
:04400E00042FFF3F3D
:00000001FF
